{"abi":[{"type":"constructor","inputs":[{"name":"_vault","type":"address","internalType":"address"},{"name":"_beneficiary","type":"address","internalType":"address"},{"name":"_id","type":"uint256","internalType":"uint256"}],"stateMutability":"nonpayable"},{"type":"fallback","stateMutability":"nonpayable"},{"type":"function","name":"attack","inputs":[],"outputs":[],"stateMutability":"nonpayable"},{"type":"function","name":"beneficiary","inputs":[],"outputs":[{"name":"","type":"address","internalType":"address"}],"stateMutability":"view"},{"type":"function","name":"id","inputs":[],"outputs":[{"name":"","type":"uint256","internalType":"uint256"}],"stateMutability":"view"},{"type":"function","name":"vault","inputs":[],"outputs":[{"name":"","type":"address","internalType":"contract IVestingVault"}],"stateMutability":"view"}],"bytecode":{"object":"0x608060405234801561000f575f5ffd5b5060405161059138038061059183398181016040528101906100319190610150565b825f5f6101000a81548173ffffffffffffffffffffffffffffffffffffffff021916908373ffffffffffffffffffffffffffffffffffffffff1602179055508160015f6101000a81548173ffffffffffffffffffffffffffffffffffffffff021916908373ffffffffffffffffffffffffffffffffffffffff160217905550806002819055505050506101a0565b5f5ffd5b5f73ffffffffffffffffffffffffffffffffffffffff82169050919050565b5f6100ec826100c3565b9050919050565b6100fc816100e2565b8114610106575f5ffd5b50565b5f81519050610117816100f3565b92915050565b5f819050919050565b61012f8161011d565b8114610139575f5ffd5b50565b5f8151905061014a81610126565b92915050565b5f5f5f60608486031215610167576101666100bf565b5b5f61017486828701610109565b935050602061018586828701610109565b92505060406101968682870161013c565b9150509250925092565b6103e4806101ad5f395ff3fe608060405234801561000f575f5ffd5b506004361061004e575f3560e01c806338af3eed1461012a5780639e5faafc14610148578063af640d0f14610152578063fbfa77cf146101705761004f565b5b60035f9054906101000a900460ff1661012857600160035f6101000a81548160ff0219169083151502179055505f5f9054906101000a900473ffffffffffffffffffffffffffffffffffffffff1673ffffffffffffffffffffffffffffffffffffffff1663aad3ec9660015f9054906101000a900473ffffffffffffffffffffffffffffffffffffffff166002546040518363ffffffff1660e01b81526004016100fa9291906102e1565b5f604051808303815f87803b158015610111575f5ffd5b505af1158015610123573d5f5f3e3d5ffd5b505050505b005b61013261018e565b60405161013f9190610308565b60405180910390f35b6101506101b3565b005b61015a610260565b6040516101679190610321565b60405180910390f35b610178610266565b6040516101859190610395565b60405180910390f35b60015f9054906101000a900473ffffffffffffffffffffffffffffffffffffffff1681565b5f5f9054906101000a900473ffffffffffffffffffffffffffffffffffffffff1673ffffffffffffffffffffffffffffffffffffffff1663aad3ec9660015f9054906101000a900473ffffffffffffffffffffffffffffffffffffffff166002546040518363ffffffff1660e01b81526004016102319291906102e1565b5f604051808303815f87803b158015610248575f5ffd5b505af115801561025a573d5f5f3e3d5ffd5b50505050565b60025481565b5f5f9054906101000a900473ffffffffffffffffffffffffffffffffffffffff1681565b5f73ffffffffffffffffffffffffffffffffffffffff82169050919050565b5f6102b38261028a565b9050919050565b6102c3816102a9565b82525050565b5f819050919050565b6102db816102c9565b82525050565b5f6040820190506102f45f8301856102ba565b61030160208301846102d2565b9392505050565b5f60208201905061031b5f8301846102ba565b92915050565b5f6020820190506103345f8301846102d2565b92915050565b5f819050919050565b5f61035d6103586103538461028a565b61033a565b61028a565b9050919050565b5f61036e82610343565b9050919050565b5f61037f82610364565b9050919050565b61038f81610375565b82525050565b5f6020820190506103a85f830184610386565b9291505056fea26469706673582212203d91aa1e876502161ab0cf6b3ab24ae89f4d4e9244b42463991a876cbc9ad47964736f6c634300081e0033","linkReferences":{}},"methodIdentifiers":{"attack()":"9e5faafc","beneficiary()":"38af3eed","id()":"af640d0f","vault()":"fbfa77cf"},"id":32}