{"abi":[{"type":"constructor","inputs":[{"name":"_token","type":"address","internalType":"contract IERC20"},{"name":"_treasury","type":"address","internalType":"address"},{"name":"_feeBps","type":"uint16","internalType":"uint16"}],"stateMutability":"nonpayable"},{"type":"function","name":"DEFAULT_ADMIN_ROLE","inputs":[],"outputs":[{"name":"","type":"bytes32","internalType":"bytes32"}],"stateMutability":"view"},{"type":"function","name":"PAUSER_ROLE","inputs":[],"outputs":[{"name":"","type":"bytes32","internalType":"bytes32"}],"stateMutability":"view"},{"type":"function","name":"SCHEDULER_ROLE","inputs":[],"outputs":[{"name":"","type":"bytes32","internalType":"bytes32"}],"stateMutability":"view"},{"type":"function","name":"claim","inputs":[{"name":"beneficiary","type":"address","internalType":"address"},{"name":"id","type":"uint256","internalType":"uint256"}],"outputs":[],"stateMutability":"nonpayable"},{"type":"function","name":"createSchedule","inputs":[{"name":"beneficiary","type":"address","internalType":"address"},{"name":"start","type":"uint64","internalType":"uint64"},{"name":"cliff","type":"uint64","internalType":"uint64"},{"name":"duration","type":"uint64","internalType":"uint64"},{"name":"total","type":"uint128","internalType":"uint128"},{"name":"revocable","type":"bool","internalType":"bool"}],"outputs":[],"stateMutability":"nonpayable"},{"type":"function","name":"feeBps","inputs":[],"outputs":[{"name":"","type":"uint16","internalType":"uint16"}],"stateMutability":"view"},{"type":"function","name":"getRoleAdmin","inputs":[{"name":"role","type":"bytes32","internalType":"bytes32"}],"outputs":[{"name":"","type":"bytes32","internalType":"bytes32"}],"stateMutability":"view"},{"type":"function","name":"grantRole","inputs":[{"name":"role","type":"bytes32","internalType":"bytes32"},{"name":"account","type":"address","internalType":"address"}],"outputs":[],"stateMutability":"nonpayable"},{"type":"function","name":"hasRole","inputs":[{"name":"role","type":"bytes32","internalType":"bytes32"},{"name":"account","type":"address","internalType":"address"}],"outputs":[{"name":"","type":"bool","internalType":"bool"}],"stateMutability":"view"},{"type":"function","name":"pause","inputs":[],"outputs":[],"stateMutability":"nonpayable"},{"type":"function","name":"paused","inputs":[],"outputs":[{"name":"","type":"bool","internalType":"bool"}],"stateMutability":"view"},{"type":"function","name":"previewClaimable","inputs":[{"name":"beneficiary","type":"address","internalType":"address"},{"name":"id","type":"uint256","internalType":"uint256"}],"outputs":[{"name":"","type":"uint256","internalType":"uint256"}],"stateMutability":"view"},{"type":"function","name":"renounceRole","inputs":[{"name":"role","type":"bytes32","internalType":"bytes32"},{"name":"callerConfirmation","type":"address","internalType":"address"}],"outputs":[],"stateMutability":"nonpayable"},{"type":"function","name":"revokeRole","inputs":[{"name":"role","type":"bytes32","internalType":"bytes32"},{"name":"account","type":"address","internalType":"address"}],"outputs":[],"stateMutability":"nonpayable"},{"type":"function","name":"revokeSchedule","inputs":[{"name":"beneficiary","type":"address","internalType":"address"},{"name":"id","type":"uint256","internalType":"uint256"}],"outputs":[],"stateMutability":"nonpayable"},{"type":"function","name":"scheduleCount","inputs":[{"name":"","type":"address","internalType":"address"}],"outputs":[{"name":"","type":"uint256","internalType":"uint256"}],"stateMutability":"view"},{"type":"function","name":"schedules","inputs":[{"name":"","type":"address","internalType":"address"},{"name":"","type":"uint256","internalType":"uint256"}],"outputs":[{"name":"start","type":"uint64","internalType":"uint64"},{"name":"cliff","type":"uint64","internalType":"uint64"},{"name":"duration","type":"uint64","internalType":"uint64"},{"name":"total","type":"uint128","internalType":"uint128"},{"name":"released","type":"uint128","internalType":"uint128"},{"name":"revocable","type":"bool","internalType":"bool"},{"name":"revoked","type":"bool","internalType":"bool"}],"stateMutability":"view"},{"type":"function","name":"supportsInterface","inputs":[{"name":"interfaceId","type":"bytes4","internalType":"bytes4"}],"outputs":[{"name":"","type":"bool","internalType":"bool"}],"stateMutability":"view"},{"type":"function","name":"token","inputs":[],"outputs":[{"name":"","type":"address","internalType":"contract IERC20"}],"stateMutability":"view"},{"type":"function","name":"treasury","inputs":[],"outputs":[{"name":"","type":"address","internalType":"address"}],"stateMutability":"view"},{"type":"function","name":"unpause","inputs":[],"outputs":[],"stateMutability":"nonpayable"},{"type":"event","name":"Claimed","inputs":[{"name":"beneficiary","type":"address","indexed":true,"internalType":"address"},{"name":"id","type":"uint256","indexed":true,"internalType":"uint256"},{"name":"amount","type":"uint256","indexed":false,"internalType":"uint256"}],"anonymous":false},{"type":"event","name":"Paused","inputs":[{"name":"account","type":"address","indexed":false,"internalType":"address"}],"anonymous":false},{"type":"event","name":"RoleAdminChanged","inputs":[{"name":"role","type":"bytes32","indexed":true,"internalType":"bytes32"},{"name":"previousAdminRole","type":"bytes32","indexed":true,"internalType":"bytes32"},{"name":"newAdminRole","type":"bytes32","indexed":true,"internalType":"bytes32"}],"anonymous":false},{"type":"event","name":"RoleGranted","inputs":[{"name":"role","type":"bytes32","indexed":true,"internalType":"bytes32"},{"name":"account","type":"address","indexed":true,"internalType":"address"},{"name":"sender","type":"address","indexed":true,"internalType":"address"}],"anonymous":false},{"type":"event","name":"RoleRevoked","inputs":[{"name":"role","type":"bytes32","indexed":true,"internalType":"bytes32"},{"name":"account","type":"address","indexed":true,"internalType":"address"},{"name":"sender","type":"address","indexed":true,"internalType":"address"}],"anonymous":false},{"type":"event","name":"ScheduleCreated","inputs":[{"name":"beneficiary","type":"address","indexed":true,"internalType":"address"},{"name":"id","type":"uint256","indexed":true,"internalType":"uint256"},{"name":"total","type":"uint256","indexed":false,"internalType":"uint256"}],"anonymous":false},{"type":"event","name":"ScheduleRevoked","inputs":[{"name":"beneficiary","type":"address","indexed":true,"internalType":"address"},{"name":"id","type":"uint256","indexed":true,"internalType":"uint256"},{"name":"refunded","type":"uint256","indexed":false,"internalType":"uint256"}],"anonymous":false},{"type":"event","name":"Unpaused","inputs":[{"name":"account","type":"address","indexed":false,"internalType":"address"}],"anonymous":false},{"type":"error","name":"AccessControlBadConfirmation","inputs":[]},{"type":"error","name":"AccessControlUnauthorizedAccount","inputs":[{"name":"account","type":"address","internalType":"address"},{"name":"neededRole","type":"bytes32","internalType":"bytes32"}]},{"type":"error","name":"AlreadyRevoked","inputs":[]},{"type":"error","name":"EnforcedPause","inputs":[]},{"type":"error","name":"ExpectedPause","inputs":[]},{"type":"error","name":"InvalidParams","inputs":[]},{"type":"error","name":"NotRevocable","inputs":[]},{"type":"error","name":"NothingToClaim","inputs":[]},{"type":"error","name":"ReentrancyGuardReentrantCall","inputs":[]}],"bytecode":{"object":"0x60a060405234801561000f575f5ffd5b5060405161278d38038061278d833981810160405281019061003191906104a0565b600161004f61004461023f60201b60201c565b61026860201b60201c565b5f01819055505f73ffffffffffffffffffffffffffffffffffffffff168373ffffffffffffffffffffffffffffffffffffffff1614806100ba57505f73ffffffffffffffffffffffffffffffffffffffff168273ffffffffffffffffffffffffffffffffffffffff16145b156100f1576040517fa86b651200000000000000000000000000000000000000000000000000000000815260040160405180910390fd5b6101f48161ffff161115610131576040517fa86b651200000000000000000000000000000000000000000000000000000000815260040160405180910390fd5b8273ffffffffffffffffffffffffffffffffffffffff1660808173ffffffffffffffffffffffffffffffffffffffff1681525050816001806101000a81548173ffffffffffffffffffffffffffffffffffffffff021916908373ffffffffffffffffffffffffffffffffffffffff16021790555080600160156101000a81548161ffff021916908361ffff1602179055506101d45f5f1b3361027160201b60201c565b506102057f2c0e86ef42968f843b5fc3a6f6d421401da96923e1a6a2299b016956535a3b823361027160201b60201c565b506102367f65d7a28e3265b37a6474929f336521b332c1681b933f6cb9f3376673440d862a3361027160201b60201c565b505050506104f0565b5f7f9b779b17422d0df92223018b32b4d1fa46e071723d6817e2486d003becc55f005f1b905090565b5f819050919050565b5f610282838361036660201b60201c565b61035c5760015f5f8581526020019081526020015f205f015f8473ffffffffffffffffffffffffffffffffffffffff1673ffffffffffffffffffffffffffffffffffffffff1681526020019081526020015f205f6101000a81548160ff0219169083151502179055506102f96103c960201b60201c565b73ffffffffffffffffffffffffffffffffffffffff168273ffffffffffffffffffffffffffffffffffffffff16847f2f8788117e7eff1d82e926ec794901d17c78024a50270940304540a733656f0d60405160405180910390a460019050610360565b5f90505b92915050565b5f5f5f8481526020019081526020015f205f015f8373ffffffffffffffffffffffffffffffffffffffff1673ffffffffffffffffffffffffffffffffffffffff1681526020019081526020015f205f9054906101000a900460ff16905092915050565b5f33905090565b5f5ffd5b5f73ffffffffffffffffffffffffffffffffffffffff82169050919050565b5f6103fd826103d4565b9050919050565b5f61040e826103f3565b9050919050565b61041e81610404565b8114610428575f5ffd5b50565b5f8151905061043981610415565b92915050565b610448816103f3565b8114610452575f5ffd5b50565b5f815190506104638161043f565b92915050565b5f61ffff82169050919050565b61047f81610469565b8114610489575f5ffd5b50565b5f8151905061049a81610476565b92915050565b5f5f5f606084860312156104b7576104b66103d0565b5b5f6104c48682870161042b565b93505060206104d586828701610455565b92505060406104e68682870161048c565b9150509250925092565b60805161226261052b5f395f8181610b5401528181610bee01528181610c8b01528181610d6c0152818161102f015261152001526122625ff3fe608060405234801561000f575f5ffd5b5060043610610135575f3560e01c80638456cb59116100b6578063aad3ec961161007a578063aad3ec9614610341578063c36e19891461035d578063d547741f14610379578063e63ab1e914610395578063faa1c6fa146103b3578063fc0c546a146103cf57610135565b80638456cb5914610283578063854e96821461028d57806391d14854146102c357806395b54f08146102f3578063a217fddf1461032357610135565b80633f4ba83a116100fd5780633f4ba83a146101ef5780635a9e72eb146101f95780635c8ab63d146102295780635c975abb1461024757806361d027b31461026557610135565b806301ffc9a714610139578063248a9ca31461016957806324a9d853146101995780632f2ff15d146101b757806336568abe146101d3575b5f5ffd5b610153600480360381019061014e9190611a50565b6103ed565b6040516101609190611a95565b60405180910390f35b610183600480360381019061017e9190611ae1565b610466565b6040516101909190611b1b565b60405180910390f35b6101a1610482565b6040516101ae9190611b50565b60405180910390f35b6101d160048036038101906101cc9190611bc3565b610496565b005b6101ed60048036038101906101e89190611bc3565b6104b8565b005b6101f7610533565b005b610213600480360381019061020e9190611c01565b610568565b6040516102209190611c44565b60405180910390f35b61023161057d565b60405161023e9190611b1b565b60405180910390f35b61024f6105a1565b60405161025c9190611a95565b60405180910390f35b61026d6105b6565b60405161027a9190611c6c565b60405180910390f35b61028b6105da565b005b6102a760048036038101906102a29190611caf565b61060f565b6040516102ba9796959493929190611d39565b60405180910390f35b6102dd60048036038101906102d89190611bc3565b6106e1565b6040516102ea9190611a95565b60405180910390f35b61030d60048036038101906103089190611caf565b610744565b60405161031a9190611c44565b60405180910390f35b61032b610a41565b6040516103389190611b1b565b60405180910390f35b61035b60048036038101906103569190611caf565b610a47565b005b61037760048036038101906103729190611caf565b610e93565b005b610393600480360381019061038e9190611bc3565b611141565b005b61039d611163565b6040516103aa9190611b1b565b60405180910390f35b6103cd60048036038101906103c89190611e24565b611187565b005b6103d761151e565b6040516103e49190611f08565b60405180910390f35b5f7f7965db0b000000000000000000000000000000000000000000000000000000007bffffffffffffffffffffffffffffffffffffffffffffffffffffffff1916827bffffffffffffffffffffffffffffffffffffffffffffffffffffffff1916148061045f575061045e82611542565b5b9050919050565b5f5f5f8381526020019081526020015f20600101549050919050565b600160159054906101000a900461ffff1681565b61049f82610466565b6104a8816115ab565b6104b283836115bf565b50505050565b6104c06116a8565b73ffffffffffffffffffffffffffffffffffffffff168173ffffffffffffffffffffffffffffffffffffffff1614610524576040517f6697b23200000000000000000000000000000000000000000000000000000000815260040160405180910390fd5b61052e82826116af565b505050565b7f65d7a28e3265b37a6474929f336521b332c1681b933f6cb9f3376673440d862a61055d816115ab565b610565611798565b50565b6003602052805f5260405f205f915090505481565b7f2c0e86ef42968f843b5fc3a6f6d421401da96923e1a6a2299b016956535a3b8281565b5f60015f9054906101000a900460ff16905090565b60018054906101000a900473ffffffffffffffffffffffffffffffffffffffff1681565b7f65d7a28e3265b37a6474929f336521b332c1681b933f6cb9f3376673440d862a610604816115ab565b61060c6117f9565b50565b6002602052815f5260405f20602052805f5260405f205f9150915050805f015f9054906101000a900467ffffffffffffffff1690805f0160089054906101000a900467ffffffffffffffff1690805f0160109054906101000a900467ffffffffffffffff1690806001015f9054906101000a90046fffffffffffffffffffffffffffffffff16908060010160109054906101000a90046fffffffffffffffffffffffffffffffff1690806002015f9054906101000a900460ff16908060020160019054906101000a900460ff16905087565b5f5f5f8481526020019081526020015f205f015f8373ffffffffffffffffffffffffffffffffffffffff1673ffffffffffffffffffffffffffffffffffffffff1681526020019081526020015f205f9054906101000a900460ff16905092915050565b5f5f60025f8573ffffffffffffffffffffffffffffffffffffffff1673ffffffffffffffffffffffffffffffffffffffff1681526020019081526020015f205f8481526020019081526020015f206040518060e00160405290815f82015f9054906101000a900467ffffffffffffffff1667ffffffffffffffff1667ffffffffffffffff1681526020015f820160089054906101000a900467ffffffffffffffff1667ffffffffffffffff1667ffffffffffffffff1681526020015f820160109054906101000a900467ffffffffffffffff1667ffffffffffffffff1667ffffffffffffffff168152602001600182015f9054906101000a90046fffffffffffffffffffffffffffffffff166fffffffffffffffffffffffffffffffff166fffffffffffffffffffffffffffffffff1681526020016001820160109054906101000a90046fffffffffffffffffffffffffffffffff166fffffffffffffffffffffffffffffffff166fffffffffffffffffffffffffffffffff168152602001600282015f9054906101000a900460ff161515151581526020016002820160019054906101000a900460ff16151515158152505090508060c001518061091e57505f81606001516fffffffffffffffffffffffffffffffff16145b1561092c575f915050610a3b565b8060200151815f015161093f9190611f4e565b67ffffffffffffffff16421015610959575f915050610a3b565b5f8160400151825f015161096d9190611f4e565b67ffffffffffffffff164210156109d657816040015167ffffffffffffffff16825f015167ffffffffffffffff16426109a69190611f89565b83606001516fffffffffffffffffffffffffffffffff166109c79190611fbc565b6109d1919061202a565b6109ee565b81606001516fffffffffffffffffffffffffffffffff165b905081608001516fffffffffffffffffffffffffffffffff168111610a13575f610a36565b81608001516fffffffffffffffffffffffffffffffff1681610a359190611f89565b5b925050505b92915050565b5f5f1b81565b610a4f61185a565b610a5761187c565b5f610a628383610744565b90505f8103610a9d576040517f969bf72800000000000000000000000000000000000000000000000000000000815260040160405180910390fd5b5f60025f8573ffffffffffffffffffffffffffffffffffffffff1673ffffffffffffffffffffffffffffffffffffffff1681526020019081526020015f205f8481526020019081526020015f209050818160010160108282829054906101000a90046fffffffffffffffffffffffffffffffff16610b1b919061205a565b92506101000a8154816fffffffffffffffffffffffffffffffff02191690836fffffffffffffffffffffffffffffffff1602179055505f7f000000000000000000000000000000000000000000000000000000000000000073ffffffffffffffffffffffffffffffffffffffff166370a08231306040518263ffffffff1660e01b8152600401610bab9190611c6c565b602060405180830381865afa158015610bc6573d5f5f3e3d5ffd5b505050506040513d601f19601f82011682018060405250810190610bea91906120b1565b90507f000000000000000000000000000000000000000000000000000000000000000073ffffffffffffffffffffffffffffffffffffffff1663a9059cbb86856040518363ffffffff1660e01b8152600401610c479291906120dc565b6020604051808303815f875af1158015610c63573d5f5f3e3d5ffd5b505050506040513d601f19601f82011682018060405250810190610c879190612117565b505f7f000000000000000000000000000000000000000000000000000000000000000073ffffffffffffffffffffffffffffffffffffffff166370a08231306040518263ffffffff1660e01b8152600401610ce29190611c6c565b602060405180830381865afa158015610cfd573d5f5f3e3d5ffd5b505050506040513d601f19601f82011682018060405250810190610d2191906120b1565b90505f8183610d309190611f89565b90505f612710600160159054906101000a900461ffff1661ffff1683610d569190611fbc565b610d60919061202a565b90505f811115610e27577f000000000000000000000000000000000000000000000000000000000000000073ffffffffffffffffffffffffffffffffffffffff1663a9059cbb60018054906101000a900473ffffffffffffffffffffffffffffffffffffffff16836040518363ffffffff1660e01b8152600401610de59291906120dc565b6020604051808303815f875af1158015610e01573d5f5f3e3d5ffd5b505050506040513d601f19601f82011682018060405250810190610e259190612117565b505b868873ffffffffffffffffffffffffffffffffffffffff167f987d620f307ff6b94d58743cb7a7509f24071586a77759b77c2d4e29f75a2f9a8385610e6c9190611f89565b604051610e799190611c44565b60405180910390a3505050505050610e8f6118bd565b5050565b5f5f1b610e9f816115ab565b5f60025f8573ffffffffffffffffffffffffffffffffffffffff1673ffffffffffffffffffffffffffffffffffffffff1681526020019081526020015f205f8481526020019081526020015f209050806002015f9054906101000a900460ff16610f35576040517f9414820d00000000000000000000000000000000000000000000000000000000815260040160405180910390fd5b8060020160019054906101000a900460ff1615610f7e576040517f905e710700000000000000000000000000000000000000000000000000000000815260040160405180910390fd5b5f610f898585610744565b8260010160109054906101000a90046fffffffffffffffffffffffffffffffff166fffffffffffffffffffffffffffffffff16610fc69190612142565b90505f81836001015f9054906101000a90046fffffffffffffffffffffffffffffffff166fffffffffffffffffffffffffffffffff166110069190611f89565b905060018360020160016101000a81548160ff0219169083151502179055505f8111156110ea577f000000000000000000000000000000000000000000000000000000000000000073ffffffffffffffffffffffffffffffffffffffff1663a9059cbb60018054906101000a900473ffffffffffffffffffffffffffffffffffffffff16836040518363ffffffff1660e01b81526004016110a89291906120dc565b6020604051808303815f875af11580156110c4573d5f5f3e3d5ffd5b505050506040513d601f19601f820116820180604052508101906110e89190612117565b505b848673ffffffffffffffffffffffffffffffffffffffff167f7e78000d3ec6cf1dd4b283cefe37ae253ce38d20212fc0086921f45aabe1b6cb836040516111319190611c44565b60405180910390a3505050505050565b61114a82610466565b611153816115ab565b61115d83836116af565b50505050565b7f65d7a28e3265b37a6474929f336521b332c1681b933f6cb9f3376673440d862a81565b7f2c0e86ef42968f843b5fc3a6f6d421401da96923e1a6a2299b016956535a3b826111b1816115ab565b5f73ffffffffffffffffffffffffffffffffffffffff168773ffffffffffffffffffffffffffffffffffffffff1614806111fc57505f836fffffffffffffffffffffffffffffffff16145b8061121057505f8467ffffffffffffffff16145b8061122e57508367ffffffffffffffff168567ffffffffffffffff16115b15611265576040517fa86b651200000000000000000000000000000000000000000000000000000000815260040160405180910390fd5b5f60035f8973ffffffffffffffffffffffffffffffffffffffff1673ffffffffffffffffffffffffffffffffffffffff1681526020019081526020015f205f8154809291906112b390612175565b9190505590506040518060e001604052808867ffffffffffffffff1681526020018767ffffffffffffffff1681526020018667ffffffffffffffff168152602001856fffffffffffffffffffffffffffffffff1681526020015f6fffffffffffffffffffffffffffffffff16815260200184151581526020015f151581525060025f8a73ffffffffffffffffffffffffffffffffffffffff1673ffffffffffffffffffffffffffffffffffffffff1681526020019081526020015f205f8381526020019081526020015f205f820151815f015f6101000a81548167ffffffffffffffff021916908367ffffffffffffffff1602179055506020820151815f0160086101000a81548167ffffffffffffffff021916908367ffffffffffffffff1602179055506040820151815f0160106101000a81548167ffffffffffffffff021916908367ffffffffffffffff1602179055506060820151816001015f6101000a8154816fffffffffffffffffffffffffffffffff02191690836fffffffffffffffffffffffffffffffff16021790555060808201518160010160106101000a8154816fffffffffffffffffffffffffffffffff02191690836fffffffffffffffffffffffffffffffff16021790555060a0820151816002015f6101000a81548160ff02191690831515021790555060c08201518160020160016101000a81548160ff021916908315150217905550905050808873ffffffffffffffffffffffffffffffffffffffff167fb871057cd3f316a478a827f65b30581628abf740760eb31d9c6df28c98ffc4388660405161150c91906121ec565b60405180910390a35050505050505050565b7f000000000000000000000000000000000000000000000000000000000000000081565b5f7f01ffc9a7000000000000000000000000000000000000000000000000000000007bffffffffffffffffffffffffffffffffffffffffffffffffffffffff1916827bffffffffffffffffffffffffffffffffffffffffffffffffffffffff1916149050919050565b6115bc816115b76116a8565b6118d7565b50565b5f6115ca83836106e1565b61169e5760015f5f8581526020019081526020015f205f015f8473ffffffffffffffffffffffffffffffffffffffff1673ffffffffffffffffffffffffffffffffffffffff1681526020019081526020015f205f6101000a81548160ff02191690831515021790555061163b6116a8565b73ffffffffffffffffffffffffffffffffffffffff168273ffffffffffffffffffffffffffffffffffffffff16847f2f8788117e7eff1d82e926ec794901d17c78024a50270940304540a733656f0d60405160405180910390a4600190506116a2565b5f90505b92915050565b5f33905090565b5f6116ba83836106e1565b1561178e575f5f5f8581526020019081526020015f205f015f8473ffffffffffffffffffffffffffffffffffffffff1673ffffffffffffffffffffffffffffffffffffffff1681526020019081526020015f205f6101000a81548160ff02191690831515021790555061172b6116a8565b73ffffffffffffffffffffffffffffffffffffffff168273ffffffffffffffffffffffffffffffffffffffff16847ff6391f5c32d9c69d2a47ea670b442974b53935d1edc7fd64eb21e047a839171b60405160405180910390a460019050611792565b5f90505b92915050565b6117a0611928565b5f60015f6101000a81548160ff0219169083151502179055507f5db9ee0a495bf2e6ff9c91a7834c1ba4fdd244a5e8aa4e537bd38aeae4b073aa6117e26116a8565b6040516117ef9190611c6c565b60405180910390a1565b61180161187c565b6001805f6101000a81548160ff0219169083151502179055507f62e78cea01bee320cd4e420270b5ea74000d11b0c9f74754ebdbfc544b05a2586118436116a8565b6040516118509190611c6c565b60405180910390a1565b611862611968565b600261187461186f6119a9565b6119d2565b5f0181905550565b6118846105a1565b156118bb576040517fd93c066500000000000000000000000000000000000000000000000000000000815260040160405180910390fd5b565b60016118cf6118ca6119a9565b6119d2565b5f0181905550565b6118e182826106e1565b6119245780826040517fe2517d3f00000000000000000000000000000000000000000000000000000000815260040161191b929190612205565b60405180910390fd5b5050565b6119306105a1565b611966576040517f8dfc202b00000000000000000000000000000000000000000000000000000000815260040160405180910390fd5b565b6119706119db565b156119a7576040517f3ee5aeb500000000000000000000000000000000000000000000000000000000815260040160405180910390fd5b565b5f7f9b779b17422d0df92223018b32b4d1fa46e071723d6817e2486d003becc55f005f1b905090565b5f819050919050565b5f60026119ee6119e96119a9565b6119d2565b5f015414905090565b5f5ffd5b5f7fffffffff0000000000000000000000000000000000000000000000000000000082169050919050565b611a2f816119fb565b8114611a39575f5ffd5b50565b5f81359050611a4a81611a26565b92915050565b5f60208284031215611a6557611a646119f7565b5b5f611a7284828501611a3c565b91505092915050565b5f8115159050919050565b611a8f81611a7b565b82525050565b5f602082019050611aa85f830184611a86565b92915050565b5f819050919050565b611ac081611aae565b8114611aca575f5ffd5b50565b5f81359050611adb81611ab7565b92915050565b5f60208284031215611af657611af56119f7565b5b5f611b0384828501611acd565b91505092915050565b611b1581611aae565b82525050565b5f602082019050611b2e5f830184611b0c565b92915050565b5f61ffff82169050919050565b611b4a81611b34565b82525050565b5f602082019050611b635f830184611b41565b92915050565b5f73ffffffffffffffffffffffffffffffffffffffff82169050919050565b5f611b9282611b69565b9050919050565b611ba281611b88565b8114611bac575f5ffd5b50565b5f81359050611bbd81611b99565b92915050565b5f5f60408385031215611bd957611bd86119f7565b5b5f611be685828601611acd565b9250506020611bf785828601611baf565b9150509250929050565b5f60208284031215611c1657611c156119f7565b5b5f611c2384828501611baf565b91505092915050565b5f819050919050565b611c3e81611c2c565b82525050565b5f602082019050611c575f830184611c35565b92915050565b611c6681611b88565b82525050565b5f602082019050611c7f5f830184611c5d565b92915050565b611c8e81611c2c565b8114611c98575f5ffd5b50565b5f81359050611ca981611c85565b92915050565b5f5f60408385031215611cc557611cc46119f7565b5b5f611cd285828601611baf565b9250506020611ce385828601611c9b565b9150509250929050565b5f67ffffffffffffffff82169050919050565b611d0981611ced565b82525050565b5f6fffffffffffffffffffffffffffffffff82169050919050565b611d3381611d0f565b82525050565b5f60e082019050611d4c5f83018a611d00565b611d596020830189611d00565b611d666040830188611d00565b611d736060830187611d2a565b611d806080830186611d2a565b611d8d60a0830185611a86565b611d9a60c0830184611a86565b98975050505050505050565b611daf81611ced565b8114611db9575f5ffd5b50565b5f81359050611dca81611da6565b92915050565b611dd981611d0f565b8114611de3575f5ffd5b50565b5f81359050611df481611dd0565b92915050565b611e0381611a7b565b8114611e0d575f5ffd5b50565b5f81359050611e1e81611dfa565b92915050565b5f5f5f5f5f5f60c08789031215611e3e57611e3d6119f7565b5b5f611e4b89828a01611baf565b9650506020611e5c89828a01611dbc565b9550506040611e6d89828a01611dbc565b9450506060611e7e89828a01611dbc565b9350506080611e8f89828a01611de6565b92505060a0611ea089828a01611e10565b9150509295509295509295565b5f819050919050565b5f611ed0611ecb611ec684611b69565b611ead565b611b69565b9050919050565b5f611ee182611eb6565b9050919050565b5f611ef282611ed7565b9050919050565b611f0281611ee8565b82525050565b5f602082019050611f1b5f830184611ef9565b92915050565b7f4e487b71000000000000000000000000000000000000000000000000000000005f52601160045260245ffd5b5f611f5882611ced565b9150611f6383611ced565b9250828201905067ffffffffffffffff811115611f8357611f82611f21565b5b92915050565b5f611f9382611c2c565b9150611f9e83611c2c565b9250828203905081811115611fb657611fb5611f21565b5b92915050565b5f611fc682611c2c565b9150611fd183611c2c565b9250828202611fdf81611c2c565b91508282048414831517611ff657611ff5611f21565b5b5092915050565b7f4e487b71000000000000000000000000000000000000000000000000000000005f52601260045260245ffd5b5f61203482611c2c565b915061203f83611c2c565b92508261204f5761204e611ffd565b5b828204905092915050565b5f61206482611d0f565b915061206f83611d0f565b925082820190506fffffffffffffffffffffffffffffffff81111561209757612096611f21565b5b92915050565b5f815190506120ab81611c85565b92915050565b5f602082840312156120c6576120c56119f7565b5b5f6120d38482850161209d565b91505092915050565b5f6040820190506120ef5f830185611c5d565b6120fc6020830184611c35565b9392505050565b5f8151905061211181611dfa565b92915050565b5f6020828403121561212c5761212b6119f7565b5b5f61213984828501612103565b91505092915050565b5f61214c82611c2c565b915061215783611c2c565b925082820190508082111561216f5761216e611f21565b5b92915050565b5f61217f82611c2c565b91507fffffffffffffffffffffffffffffffffffffffffffffffffffffffffffffffff82036121b1576121b0611f21565b5b600182019050919050565b5f6121d66121d16121cc84611d0f565b611ead565b611c2c565b9050919050565b6121e6816121bc565b82525050565b5f6020820190506121ff5f8301846121dd565b92915050565b5f6040820190506122185f830185611c5d565b6122256020830184611b0c565b939250505056fea264697066735822122088c0cbf0c92ff55305b9f64dac1e91d3e7d6c54262e3abc37c515add5af00c2064736f6c634300081e0033","linkReferences":{}},"methodIdentifiers":{"DEFAULT_ADMIN_ROLE()":"a217fddf","PAUSER_ROLE()":"e63ab1e9","SCHEDULER_ROLE()":"5c8ab63d","claim(address,uint256)":"aad3ec96","createSchedule(address,uint64,uint64,uint64,uint128,bool)":"faa1c6fa","feeBps()":"24a9d853","getRoleAdmin(bytes32)":"248a9ca3","grantRole(bytes32,address)":"2f2ff15d","hasRole(bytes32,address)":"91d14854","pause()":"8456cb59","paused()":"5c975abb","previewClaimable(address,uint256)":"95b54f08","renounceRole(bytes32,address)":"36568abe","revokeRole(bytes32,address)":"d547741f","revokeSchedule(address,uint256)":"c36e1989","scheduleCount(address)":"5a9e72eb","schedules(address,uint256)":"854e9682","supportsInterface(bytes4)":"01ffc9a7","token()":"fc0c546a","treasury()":"61d027b3","unpause()":"3f4ba83a"},"id":30}