{"abi":[{"type":"constructor","inputs":[{"name":"_token","type":"address","internalType":"contract IERC20"},{"name":"_treasury","type":"address","internalType":"address"},{"name":"_feeBps","type":"uint16","internalType":"uint16"}],"stateMutability":"nonpayable"},{"type":"function","name":"DEFAULT_ADMIN_ROLE","inputs":[],"outputs":[{"name":"","type":"bytes32","internalType":"bytes32"}],"stateMutability":"view"},{"type":"function","name":"PAUSER_ROLE","inputs":[],"outputs":[{"name":"","type":"bytes32","internalType":"bytes32"}],"stateMutability":"view"},{"type":"function","name":"SCHEDULER_ROLE","inputs":[],"outputs":[{"name":"","type":"bytes32","internalType":"bytes32"}],"stateMutability":"view"},{"type":"function","name":"claim","inputs":[{"name":"beneficiary","type":"address","internalType":"address"},{"name":"id","type":"uint256","internalType":"uint256"}],"outputs":[],"stateMutability":"nonpayable"},{"type":"function","name":"createSchedule","inputs":[{"name":"beneficiary","type":"address","internalType":"address"},{"name":"start","type":"uint64","internalType":"uint64"},{"name":"cliff","type":"uint64","internalType":"uint64"},{"name":"duration","type":"uint64","internalType":"uint64"},{"name":"total","type":"uint128","internalType":"uint128"},{"name":"revocable","type":"bool","internalType":"bool"}],"outputs":[],"stateMutability":"nonpayable"},{"type":"function","name":"feeBps","inputs":[],"outputs":[{"name":"","type":"uint16","internalType":"uint16"}],"stateMutability":"view"},{"type":"function","name":"getRoleAdmin","inputs":[{"name":"role","type":"bytes32","internalType":"bytes32"}],"outputs":[{"name":"","type":"bytes32","internalType":"bytes32"}],"stateMutability":"view"},{"type":"function","name":"grantRole","inputs":[{"name":"role","type":"bytes32","internalType":"bytes32"},{"name":"account","type":"address","internalType":"address"}],"outputs":[],"stateMutability":"nonpayable"},{"type":"function","name":"hasRole","inputs":[{"name":"role","type":"bytes32","internalType":"bytes32"},{"name":"account","type":"address","internalType":"address"}],"outputs":[{"name":"","type":"bool","internalType":"bool"}],"stateMutability":"view"},{"type":"function","name":"pause","inputs":[],"outputs":[],"stateMutability":"nonpayable"},{"type":"function","name":"paused","inputs":[],"outputs":[{"name":"","type":"bool","internalType":"bool"}],"stateMutability":"view"},{"type":"function","name":"previewClaimable","inputs":[{"name":"beneficiary","type":"address","internalType":"address"},{"name":"id","type":"uint256","internalType":"uint256"}],"outputs":[{"name":"","type":"uint256","internalType":"uint256"}],"stateMutability":"view"},{"type":"function","name":"renounceRole","inputs":[{"name":"role","type":"bytes32","internalType":"bytes32"},{"name":"callerConfirmation","type":"address","internalType":"address"}],"outputs":[],"stateMutability":"nonpayable"},{"type":"function","name":"revokeRole","inputs":[{"name":"role","type":"bytes32","internalType":"bytes32"},{"name":"account","type":"address","internalType":"address"}],"outputs":[],"stateMutability":"nonpayable"},{"type":"function","name":"revokeSchedule","inputs":[{"name":"beneficiary","type":"address","internalType":"address"},{"name":"id","type":"uint256","internalType":"uint256"}],"outputs":[],"stateMutability":"nonpayable"},{"type":"function","name":"scheduleCount","inputs":[{"name":"","type":"address","internalType":"address"}],"outputs":[{"name":"","type":"uint256","internalType":"uint256"}],"stateMutability":"view"},{"type":"function","name":"schedules","inputs":[{"name":"","type":"address","internalType":"address"},{"name":"","type":"uint256","internalType":"uint256"}],"outputs":[{"name":"start","type":"uint64","internalType":"uint64"},{"name":"cliff","type":"uint64","internalType":"uint64"},{"name":"duration","type":"uint64","internalType":"uint64"},{"name":"total","type":"uint128","internalType":"uint128"},{"name":"released","type":"uint128","internalType":"uint128"},{"name":"revocable","type":"bool","internalType":"bool"},{"name":"revoked","type":"bool","internalType":"bool"}],"stateMutability":"view"},{"type":"function","name":"supportsInterface","inputs":[{"name":"interfaceId","type":"bytes4","internalType":"bytes4"}],"outputs":[{"name":"","type":"bool","internalType":"bool"}],"stateMutability":"view"},{"type":"function","name":"token","inputs":[],"outputs":[{"name":"","type":"address","internalType":"contract IERC20"}],"stateMutability":"view"},{"type":"function","name":"treasury","inputs":[],"outputs":[{"name":"","type":"address","internalType":"address"}],"stateMutability":"view"},{"type":"function","name":"unpause","inputs":[],"outputs":[],"stateMutability":"nonpayable"},{"type":"event","name":"Claimed","inputs":[{"name":"beneficiary","type":"address","indexed":true,"internalType":"address"},{"name":"id","type":"uint256","indexed":true,"internalType":"uint256"},{"name":"amount","type":"uint256","indexed":false,"internalType":"uint256"}],"anonymous":false},{"type":"event","name":"Paused","inputs":[{"name":"account","type":"address","indexed":false,"internalType":"address"}],"anonymous":false},{"type":"event","name":"RoleAdminChanged","inputs":[{"name":"role","type":"bytes32","indexed":true,"internalType":"bytes32"},{"name":"previousAdminRole","type":"bytes32","indexed":true,"internalType":"bytes32"},{"name":"newAdminRole","type":"bytes32","indexed":true,"internalType":"bytes32"}],"anonymous":false},{"type":"event","name":"RoleGranted","inputs":[{"name":"role","type":"bytes32","indexed":true,"internalType":"bytes32"},{"name":"account","type":"address","indexed":true,"internalType":"address"},{"name":"sender","type":"address","indexed":true,"internalType":"address"}],"anonymous":false},{"type":"event","name":"RoleRevoked","inputs":[{"name":"role","type":"bytes32","indexed":true,"internalType":"bytes32"},{"name":"account","type":"address","indexed":true,"internalType":"address"},{"name":"sender","type":"address","indexed":true,"internalType":"address"}],"anonymous":false},{"type":"event","name":"ScheduleCreated","inputs":[{"name":"beneficiary","type":"address","indexed":true,"internalType":"address"},{"name":"id","type":"uint256","indexed":true,"internalType":"uint256"},{"name":"total","type":"uint256","indexed":false,"internalType":"uint256"}],"anonymous":false},{"type":"event","name":"ScheduleRevoked","inputs":[{"name":"beneficiary","type":"address","indexed":true,"internalType":"address"},{"name":"id","type":"uint256","indexed":true,"internalType":"uint256"},{"name":"refunded","type":"uint256","indexed":false,"internalType":"uint256"}],"anonymous":false},{"type":"event","name":"Unpaused","inputs":[{"name":"account","type":"address","indexed":false,"internalType":"address"}],"anonymous":false},{"type":"error","name":"AccessControlBadConfirmation","inputs":[]},{"type":"error","name":"AccessControlUnauthorizedAccount","inputs":[{"name":"account","type":"address","internalType":"address"},{"name":"neededRole","type":"bytes32","internalType":"bytes32"}]},{"type":"error","name":"AlreadyRevoked","inputs":[]},{"type":"error","name":"EnforcedPause","inputs":[]},{"type":"error","name":"ExpectedPause","inputs":[]},{"type":"error","name":"InvalidParams","inputs":[]},{"type":"error","name":"NotRevocable","inputs":[]},{"type":"error","name":"NothingToClaim","inputs":[]},{"type":"error","name":"ReentrancyGuardReentrantCall","inputs":[]}],"bytecode":{"object":"0x60a060405234801561000f575f5ffd5b50604051612843380380612843833981810160405281019061003191906104a0565b600161004f61004461023f60201b60201c565b61026860201b60201c565b5f01819055505f73ffffffffffffffffffffffffffffffffffffffff168373ffffffffffffffffffffffffffffffffffffffff1614806100ba57505f73ffffffffffffffffffffffffffffffffffffffff168273ffffffffffffffffffffffffffffffffffffffff16145b156100f1576040517fa86b651200000000000000000000000000000000000000000000000000000000815260040160405180910390fd5b6101f48161ffff161115610131576040517fa86b651200000000000000000000000000000000000000000000000000000000815260040160405180910390fd5b8273ffffffffffffffffffffffffffffffffffffffff1660808173ffffffffffffffffffffffffffffffffffffffff1681525050816001806101000a81548173ffffffffffffffffffffffffffffffffffffffff021916908373ffffffffffffffffffffffffffffffffffffffff16021790555080600160156101000a81548161ffff021916908361ffff1602179055506101d45f5f1b3361027160201b60201c565b506102057f2c0e86ef42968f843b5fc3a6f6d421401da96923e1a6a2299b016956535a3b823361027160201b60201c565b506102367f65d7a28e3265b37a6474929f336521b332c1681b933f6cb9f3376673440d862a3361027160201b60201c565b505050506104f0565b5f7f9b779b17422d0df92223018b32b4d1fa46e071723d6817e2486d003becc55f005f1b905090565b5f819050919050565b5f610282838361036660201b60201c565b61035c5760015f5f8581526020019081526020015f205f015f8473ffffffffffffffffffffffffffffffffffffffff1673ffffffffffffffffffffffffffffffffffffffff1681526020019081526020015f205f6101000a81548160ff0219169083151502179055506102f96103c960201b60201c565b73ffffffffffffffffffffffffffffffffffffffff168273ffffffffffffffffffffffffffffffffffffffff16847f2f8788117e7eff1d82e926ec794901d17c78024a50270940304540a733656f0d60405160405180910390a460019050610360565b5f90505b92915050565b5f5f5f8481526020019081526020015f205f015f8373ffffffffffffffffffffffffffffffffffffffff1673ffffffffffffffffffffffffffffffffffffffff1681526020019081526020015f205f9054906101000a900460ff16905092915050565b5f33905090565b5f5ffd5b5f73ffffffffffffffffffffffffffffffffffffffff82169050919050565b5f6103fd826103d4565b9050919050565b5f61040e826103f3565b9050919050565b61041e81610404565b8114610428575f5ffd5b50565b5f8151905061043981610415565b92915050565b610448816103f3565b8114610452575f5ffd5b50565b5f815190506104638161043f565b92915050565b5f61ffff82169050919050565b61047f81610469565b8114610489575f5ffd5b50565b5f8151905061049a81610476565b92915050565b5f5f5f606084860312156104b7576104b66103d0565b5b5f6104c48682870161042b565b93505060206104d586828701610455565b92505060406104e68682870161048c565b9150509250925092565b60805161231861052b5f395f8181610b5401528181610bee01528181610cc901528181610daa0152818161106d015261155e01526123185ff3fe608060405234801561000f575f5ffd5b5060043610610135575f3560e01c80638456cb59116100b6578063aad3ec961161007a578063aad3ec9614610341578063c36e19891461035d578063d547741f14610379578063e63ab1e914610395578063faa1c6fa146103b3578063fc0c546a146103cf57610135565b80638456cb5914610283578063854e96821461028d57806391d14854146102c357806395b54f08146102f3578063a217fddf1461032357610135565b80633f4ba83a116100fd5780633f4ba83a146101ef5780635a9e72eb146101f95780635c8ab63d146102295780635c975abb1461024757806361d027b31461026557610135565b806301ffc9a714610139578063248a9ca31461016957806324a9d853146101995780632f2ff15d146101b757806336568abe146101d3575b5f5ffd5b610153600480360381019061014e9190611a8e565b6103ed565b6040516101609190611ad3565b60405180910390f35b610183600480360381019061017e9190611b1f565b610466565b6040516101909190611b59565b60405180910390f35b6101a1610482565b6040516101ae9190611b8e565b60405180910390f35b6101d160048036038101906101cc9190611c01565b610496565b005b6101ed60048036038101906101e89190611c01565b6104b8565b005b6101f7610533565b005b610213600480360381019061020e9190611c3f565b610568565b6040516102209190611c82565b60405180910390f35b61023161057d565b60405161023e9190611b59565b60405180910390f35b61024f6105a1565b60405161025c9190611ad3565b60405180910390f35b61026d6105b6565b60405161027a9190611caa565b60405180910390f35b61028b6105da565b005b6102a760048036038101906102a29190611ced565b61060f565b6040516102ba9796959493929190611d77565b60405180910390f35b6102dd60048036038101906102d89190611c01565b6106e1565b6040516102ea9190611ad3565b60405180910390f35b61030d60048036038101906103089190611ced565b610744565b60405161031a9190611c82565b60405180910390f35b61032b610a41565b6040516103389190611b59565b60405180910390f35b61035b60048036038101906103569190611ced565b610a47565b005b61037760048036038101906103729190611ced565b610ed1565b005b610393600480360381019061038e9190611c01565b61117f565b005b61039d6111a1565b6040516103aa9190611b59565b60405180910390f35b6103cd60048036038101906103c89190611e62565b6111c5565b005b6103d761155c565b6040516103e49190611f46565b60405180910390f35b5f7f7965db0b000000000000000000000000000000000000000000000000000000007bffffffffffffffffffffffffffffffffffffffffffffffffffffffff1916827bffffffffffffffffffffffffffffffffffffffffffffffffffffffff1916148061045f575061045e82611580565b5b9050919050565b5f5f5f8381526020019081526020015f20600101549050919050565b600160159054906101000a900461ffff1681565b61049f82610466565b6104a8816115e9565b6104b283836115fd565b50505050565b6104c06116e6565b73ffffffffffffffffffffffffffffffffffffffff168173ffffffffffffffffffffffffffffffffffffffff1614610524576040517f6697b23200000000000000000000000000000000000000000000000000000000815260040160405180910390fd5b61052e82826116ed565b505050565b7f65d7a28e3265b37a6474929f336521b332c1681b933f6cb9f3376673440d862a61055d816115e9565b6105656117d6565b50565b6003602052805f5260405f205f915090505481565b7f2c0e86ef42968f843b5fc3a6f6d421401da96923e1a6a2299b016956535a3b8281565b5f60015f9054906101000a900460ff16905090565b60018054906101000a900473ffffffffffffffffffffffffffffffffffffffff1681565b7f65d7a28e3265b37a6474929f336521b332c1681b933f6cb9f3376673440d862a610604816115e9565b61060c611837565b50565b6002602052815f5260405f20602052805f5260405f205f9150915050805f015f9054906101000a900467ffffffffffffffff1690805f0160089054906101000a900467ffffffffffffffff1690805f0160109054906101000a900467ffffffffffffffff1690806001015f9054906101000a90046fffffffffffffffffffffffffffffffff16908060010160109054906101000a90046fffffffffffffffffffffffffffffffff1690806002015f9054906101000a900460ff16908060020160019054906101000a900460ff16905087565b5f5f5f8481526020019081526020015f205f015f8373ffffffffffffffffffffffffffffffffffffffff1673ffffffffffffffffffffffffffffffffffffffff1681526020019081526020015f205f9054906101000a900460ff16905092915050565b5f5f60025f8573ffffffffffffffffffffffffffffffffffffffff1673ffffffffffffffffffffffffffffffffffffffff1681526020019081526020015f205f8481526020019081526020015f206040518060e00160405290815f82015f9054906101000a900467ffffffffffffffff1667ffffffffffffffff1667ffffffffffffffff1681526020015f820160089054906101000a900467ffffffffffffffff1667ffffffffffffffff1667ffffffffffffffff1681526020015f820160109054906101000a900467ffffffffffffffff1667ffffffffffffffff1667ffffffffffffffff168152602001600182015f9054906101000a90046fffffffffffffffffffffffffffffffff166fffffffffffffffffffffffffffffffff166fffffffffffffffffffffffffffffffff1681526020016001820160109054906101000a90046fffffffffffffffffffffffffffffffff166fffffffffffffffffffffffffffffffff166fffffffffffffffffffffffffffffffff168152602001600282015f9054906101000a900460ff161515151581526020016002820160019054906101000a900460ff16151515158152505090508060c001518061091e57505f81606001516fffffffffffffffffffffffffffffffff16145b1561092c575f915050610a3b565b8060200151815f015161093f9190611f8c565b67ffffffffffffffff16421015610959575f915050610a3b565b5f8160400151825f015161096d9190611f8c565b67ffffffffffffffff164210156109d657816040015167ffffffffffffffff16825f015167ffffffffffffffff16426109a69190611fc7565b83606001516fffffffffffffffffffffffffffffffff166109c79190611ffa565b6109d19190612068565b6109ee565b81606001516fffffffffffffffffffffffffffffffff165b905081608001516fffffffffffffffffffffffffffffffff168111610a13575f610a36565b81608001516fffffffffffffffffffffffffffffffff1681610a359190611fc7565b5b925050505b92915050565b5f5f1b81565b610a4f611898565b610a576118ba565b5f610a628383610744565b90505f8103610a9d576040517f969bf72800000000000000000000000000000000000000000000000000000000815260040160405180910390fd5b5f60025f8573ffffffffffffffffffffffffffffffffffffffff1673ffffffffffffffffffffffffffffffffffffffff1681526020019081526020015f205f8481526020019081526020015f209050818160010160108282829054906101000a90046fffffffffffffffffffffffffffffffff16610b1b9190612098565b92506101000a8154816fffffffffffffffffffffffffffffffff02191690836fffffffffffffffffffffffffffffffff1602179055505f7f000000000000000000000000000000000000000000000000000000000000000073ffffffffffffffffffffffffffffffffffffffff166370a08231306040518263ffffffff1660e01b8152600401610bab9190611caa565b602060405180830381865afa158015610bc6573d5f5f3e3d5ffd5b505050506040513d601f19601f82011682018060405250810190610bea91906120ef565b90507f000000000000000000000000000000000000000000000000000000000000000073ffffffffffffffffffffffffffffffffffffffff1663a9059cbb86856040518363ffffffff1660e01b8152600401610c4792919061211a565b6020604051808303815f875af1158015610c63573d5f5f3e3d5ffd5b505050506040513d601f19601f82011682018060405250810190610c879190612155565b610cc6576040517f08c379a0000000000000000000000000000000000000000000000000000000008152600401610cbd906121da565b60405180910390fd5b5f7f000000000000000000000000000000000000000000000000000000000000000073ffffffffffffffffffffffffffffffffffffffff166370a08231306040518263ffffffff1660e01b8152600401610d209190611caa565b602060405180830381865afa158015610d3b573d5f5f3e3d5ffd5b505050506040513d601f19601f82011682018060405250810190610d5f91906120ef565b90505f8183610d6e9190611fc7565b90505f612710600160159054906101000a900461ffff1661ffff1683610d949190611ffa565b610d9e9190612068565b90505f811115610e65577f000000000000000000000000000000000000000000000000000000000000000073ffffffffffffffffffffffffffffffffffffffff1663a9059cbb60018054906101000a900473ffffffffffffffffffffffffffffffffffffffff16836040518363ffffffff1660e01b8152600401610e2392919061211a565b6020604051808303815f875af1158015610e3f573d5f5f3e3d5ffd5b505050506040513d601f19601f82011682018060405250810190610e639190612155565b505b868873ffffffffffffffffffffffffffffffffffffffff167f987d620f307ff6b94d58743cb7a7509f24071586a77759b77c2d4e29f75a2f9a8385610eaa9190611fc7565b604051610eb79190611c82565b60405180910390a3505050505050610ecd6118fb565b5050565b5f5f1b610edd816115e9565b5f60025f8573ffffffffffffffffffffffffffffffffffffffff1673ffffffffffffffffffffffffffffffffffffffff1681526020019081526020015f205f8481526020019081526020015f209050806002015f9054906101000a900460ff16610f73576040517f9414820d00000000000000000000000000000000000000000000000000000000815260040160405180910390fd5b8060020160019054906101000a900460ff1615610fbc576040517f905e710700000000000000000000000000000000000000000000000000000000815260040160405180910390fd5b5f610fc78585610744565b8260010160109054906101000a90046fffffffffffffffffffffffffffffffff166fffffffffffffffffffffffffffffffff1661100491906121f8565b90505f81836001015f9054906101000a90046fffffffffffffffffffffffffffffffff166fffffffffffffffffffffffffffffffff166110449190611fc7565b905060018360020160016101000a81548160ff0219169083151502179055505f811115611128577f000000000000000000000000000000000000000000000000000000000000000073ffffffffffffffffffffffffffffffffffffffff1663a9059cbb60018054906101000a900473ffffffffffffffffffffffffffffffffffffffff16836040518363ffffffff1660e01b81526004016110e692919061211a565b6020604051808303815f875af1158015611102573d5f5f3e3d5ffd5b505050506040513d601f19601f820116820180604052508101906111269190612155565b505b848673ffffffffffffffffffffffffffffffffffffffff167f7e78000d3ec6cf1dd4b283cefe37ae253ce38d20212fc0086921f45aabe1b6cb8360405161116f9190611c82565b60405180910390a3505050505050565b61118882610466565b611191816115e9565b61119b83836116ed565b50505050565b7f65d7a28e3265b37a6474929f336521b332c1681b933f6cb9f3376673440d862a81565b7f2c0e86ef42968f843b5fc3a6f6d421401da96923e1a6a2299b016956535a3b826111ef816115e9565b5f73ffffffffffffffffffffffffffffffffffffffff168773ffffffffffffffffffffffffffffffffffffffff16148061123a57505f836fffffffffffffffffffffffffffffffff16145b8061124e57505f8467ffffffffffffffff16145b8061126c57508367ffffffffffffffff168567ffffffffffffffff16115b156112a3576040517fa86b651200000000000000000000000000000000000000000000000000000000815260040160405180910390fd5b5f60035f8973ffffffffffffffffffffffffffffffffffffffff1673ffffffffffffffffffffffffffffffffffffffff1681526020019081526020015f205f8154809291906112f19061222b565b9190505590506040518060e001604052808867ffffffffffffffff1681526020018767ffffffffffffffff1681526020018667ffffffffffffffff168152602001856fffffffffffffffffffffffffffffffff1681526020015f6fffffffffffffffffffffffffffffffff16815260200184151581526020015f151581525060025f8a73ffffffffffffffffffffffffffffffffffffffff1673ffffffffffffffffffffffffffffffffffffffff1681526020019081526020015f205f8381526020019081526020015f205f820151815f015f6101000a81548167ffffffffffffffff021916908367ffffffffffffffff1602179055506020820151815f0160086101000a81548167ffffffffffffffff021916908367ffffffffffffffff1602179055506040820151815f0160106101000a81548167ffffffffffffffff021916908367ffffffffffffffff1602179055506060820151816001015f6101000a8154816fffffffffffffffffffffffffffffffff02191690836fffffffffffffffffffffffffffffffff16021790555060808201518160010160106101000a8154816fffffffffffffffffffffffffffffffff02191690836fffffffffffffffffffffffffffffffff16021790555060a0820151816002015f6101000a81548160ff02191690831515021790555060c08201518160020160016101000a81548160ff021916908315150217905550905050808873ffffffffffffffffffffffffffffffffffffffff167fb871057cd3f316a478a827f65b30581628abf740760eb31d9c6df28c98ffc4388660405161154a91906122a2565b60405180910390a35050505050505050565b7f000000000000000000000000000000000000000000000000000000000000000081565b5f7f01ffc9a7000000000000000000000000000000000000000000000000000000007bffffffffffffffffffffffffffffffffffffffffffffffffffffffff1916827bffffffffffffffffffffffffffffffffffffffffffffffffffffffff1916149050919050565b6115fa816115f56116e6565b611915565b50565b5f61160883836106e1565b6116dc5760015f5f8581526020019081526020015f205f015f8473ffffffffffffffffffffffffffffffffffffffff1673ffffffffffffffffffffffffffffffffffffffff1681526020019081526020015f205f6101000a81548160ff0219169083151502179055506116796116e6565b73ffffffffffffffffffffffffffffffffffffffff168273ffffffffffffffffffffffffffffffffffffffff16847f2f8788117e7eff1d82e926ec794901d17c78024a50270940304540a733656f0d60405160405180910390a4600190506116e0565b5f90505b92915050565b5f33905090565b5f6116f883836106e1565b156117cc575f5f5f8581526020019081526020015f205f015f8473ffffffffffffffffffffffffffffffffffffffff1673ffffffffffffffffffffffffffffffffffffffff1681526020019081526020015f205f6101000a81548160ff0219169083151502179055506117696116e6565b73ffffffffffffffffffffffffffffffffffffffff168273ffffffffffffffffffffffffffffffffffffffff16847ff6391f5c32d9c69d2a47ea670b442974b53935d1edc7fd64eb21e047a839171b60405160405180910390a4600190506117d0565b5f90505b92915050565b6117de611966565b5f60015f6101000a81548160ff0219169083151502179055507f5db9ee0a495bf2e6ff9c91a7834c1ba4fdd244a5e8aa4e537bd38aeae4b073aa6118206116e6565b60405161182d9190611caa565b60405180910390a1565b61183f6118ba565b6001805f6101000a81548160ff0219169083151502179055507f62e78cea01bee320cd4e420270b5ea74000d11b0c9f74754ebdbfc544b05a2586118816116e6565b60405161188e9190611caa565b60405180910390a1565b6118a06119a6565b60026118b26118ad6119e7565b611a10565b5f0181905550565b6118c26105a1565b156118f9576040517fd93c066500000000000000000000000000000000000000000000000000000000815260040160405180910390fd5b565b600161190d6119086119e7565b611a10565b5f0181905550565b61191f82826106e1565b6119625780826040517fe2517d3f0000000000000000000000000000000000000000000000000000000081526004016119599291906122bb565b60405180910390fd5b5050565b61196e6105a1565b6119a4576040517f8dfc202b00000000000000000000000000000000000000000000000000000000815260040160405180910390fd5b565b6119ae611a19565b156119e5576040517f3ee5aeb500000000000000000000000000000000000000000000000000000000815260040160405180910390fd5b565b5f7f9b779b17422d0df92223018b32b4d1fa46e071723d6817e2486d003becc55f005f1b905090565b5f819050919050565b5f6002611a2c611a276119e7565b611a10565b5f015414905090565b5f5ffd5b5f7fffffffff0000000000000000000000000000000000000000000000000000000082169050919050565b611a6d81611a39565b8114611a77575f5ffd5b50565b5f81359050611a8881611a64565b92915050565b5f60208284031215611aa357611aa2611a35565b5b5f611ab084828501611a7a565b91505092915050565b5f8115159050919050565b611acd81611ab9565b82525050565b5f602082019050611ae65f830184611ac4565b92915050565b5f819050919050565b611afe81611aec565b8114611b08575f5ffd5b50565b5f81359050611b1981611af5565b92915050565b5f60208284031215611b3457611b33611a35565b5b5f611b4184828501611b0b565b91505092915050565b611b5381611aec565b82525050565b5f602082019050611b6c5f830184611b4a565b92915050565b5f61ffff82169050919050565b611b8881611b72565b82525050565b5f602082019050611ba15f830184611b7f565b92915050565b5f73ffffffffffffffffffffffffffffffffffffffff82169050919050565b5f611bd082611ba7565b9050919050565b611be081611bc6565b8114611bea575f5ffd5b50565b5f81359050611bfb81611bd7565b92915050565b5f5f60408385031215611c1757611c16611a35565b5b5f611c2485828601611b0b565b9250506020611c3585828601611bed565b9150509250929050565b5f60208284031215611c5457611c53611a35565b5b5f611c6184828501611bed565b91505092915050565b5f819050919050565b611c7c81611c6a565b82525050565b5f602082019050611c955f830184611c73565b92915050565b611ca481611bc6565b82525050565b5f602082019050611cbd5f830184611c9b565b92915050565b611ccc81611c6a565b8114611cd6575f5ffd5b50565b5f81359050611ce781611cc3565b92915050565b5f5f60408385031215611d0357611d02611a35565b5b5f611d1085828601611bed565b9250506020611d2185828601611cd9565b9150509250929050565b5f67ffffffffffffffff82169050919050565b611d4781611d2b565b82525050565b5f6fffffffffffffffffffffffffffffffff82169050919050565b611d7181611d4d565b82525050565b5f60e082019050611d8a5f83018a611d3e565b611d976020830189611d3e565b611da46040830188611d3e565b611db16060830187611d68565b611dbe6080830186611d68565b611dcb60a0830185611ac4565b611dd860c0830184611ac4565b98975050505050505050565b611ded81611d2b565b8114611df7575f5ffd5b50565b5f81359050611e0881611de4565b92915050565b611e1781611d4d565b8114611e21575f5ffd5b50565b5f81359050611e3281611e0e565b92915050565b611e4181611ab9565b8114611e4b575f5ffd5b50565b5f81359050611e5c81611e38565b92915050565b5f5f5f5f5f5f60c08789031215611e7c57611e7b611a35565b5b5f611e8989828a01611bed565b9650506020611e9a89828a01611dfa565b9550506040611eab89828a01611dfa565b9450506060611ebc89828a01611dfa565b9350506080611ecd89828a01611e24565b92505060a0611ede89828a01611e4e565b9150509295509295509295565b5f819050919050565b5f611f0e611f09611f0484611ba7565b611eeb565b611ba7565b9050919050565b5f611f1f82611ef4565b9050919050565b5f611f3082611f15565b9050919050565b611f4081611f26565b82525050565b5f602082019050611f595f830184611f37565b92915050565b7f4e487b71000000000000000000000000000000000000000000000000000000005f52601160045260245ffd5b5f611f9682611d2b565b9150611fa183611d2b565b9250828201905067ffffffffffffffff811115611fc157611fc0611f5f565b5b92915050565b5f611fd182611c6a565b9150611fdc83611c6a565b9250828203905081811115611ff457611ff3611f5f565b5b92915050565b5f61200482611c6a565b915061200f83611c6a565b925082820261201d81611c6a565b9150828204841483151761203457612033611f5f565b5b5092915050565b7f4e487b71000000000000000000000000000000000000000000000000000000005f52601260045260245ffd5b5f61207282611c6a565b915061207d83611c6a565b92508261208d5761208c61203b565b5b828204905092915050565b5f6120a282611d4d565b91506120ad83611d4d565b925082820190506fffffffffffffffffffffffffffffffff8111156120d5576120d4611f5f565b5b92915050565b5f815190506120e981611cc3565b92915050565b5f6020828403121561210457612103611a35565b5b5f612111848285016120db565b91505092915050565b5f60408201905061212d5f830185611c9b565b61213a6020830184611c73565b9392505050565b5f8151905061214f81611e38565b92915050565b5f6020828403121561216a57612169611a35565b5b5f61217784828501612141565b91505092915050565b5f82825260208201905092915050565b7f5452414e534645525f4641494c454400000000000000000000000000000000005f82015250565b5f6121c4600f83612180565b91506121cf82612190565b602082019050919050565b5f6020820190508181035f8301526121f1816121b8565b9050919050565b5f61220282611c6a565b915061220d83611c6a565b925082820190508082111561222557612224611f5f565b5b92915050565b5f61223582611c6a565b91507fffffffffffffffffffffffffffffffffffffffffffffffffffffffffffffffff820361226757612266611f5f565b5b600182019050919050565b5f61228c61228761228284611d4d565b611eeb565b611c6a565b9050919050565b61229c81612272565b82525050565b5f6020820190506122b55f830184612293565b92915050565b5f6040820190506122ce5f830185611c9b565b6122db6020830184611b4a565b939250505056fea26469706673582212205359ec45ba2ba61a6764b7d0d60d919b721c48398ee06d50ae35db2648a9ed7d64736f6c634300081e0033","linkReferences":{}},"methodIdentifiers":{"DEFAULT_ADMIN_ROLE()":"a217fddf","PAUSER_ROLE()":"e63ab1e9","SCHEDULER_ROLE()":"5c8ab63d","claim(address,uint256)":"aad3ec96","createSchedule(address,uint64,uint64,uint64,uint128,bool)":"faa1c6fa","feeBps()":"24a9d853","getRoleAdmin(bytes32)":"248a9ca3","grantRole(bytes32,address)":"2f2ff15d","hasRole(bytes32,address)":"91d14854","pause()":"8456cb59","paused()":"5c975abb","previewClaimable(address,uint256)":"95b54f08","renounceRole(bytes32,address)":"36568abe","revokeRole(bytes32,address)":"d547741f","revokeSchedule(address,uint256)":"c36e1989","scheduleCount(address)":"5a9e72eb","schedules(address,uint256)":"854e9682","supportsInterface(bytes4)":"01ffc9a7","token()":"fc0c546a","treasury()":"61d027b3","unpause()":"3f4ba83a"},"id":30}